:020000040800F2
:1000000098050020490100081D1E00084D1C00082D
:10001000191E0008B5010008C924000800000000EE
:100020000000000000000000000000004D1E00085D
:10003000FD02000800000000211E00084F1E0008FD
:100040006301000863010008630100086301000800
:1000500063010008630100086301000863010008F0
:1000600063010008630100086301000863010008E0
:1000700063010008630100086301000863010008D0
:1000800063010008630100086301000863010008C0
:1000900063010008630100086301000863010008B0
:1000A00063010008630100086301000863010008A0
:1000B0006301000863010008630100086301000890
:1000C0006301000863010008630100086301000880
:1000D00063010008B92400086301000863010008F7
:1000E0006301000863010008630100086301000860
:1000F0006301000863010008630100086301000850
:10010000630100086301000863010008630100083F
:10011000C51E0008630100086301000863010008B0
:100120006301000863010008C102000863010008C0
:10013000DFF810D000F02CF800480047C525000873
:10014000AFF3008098050020064880470648004726
:10015000FEE7FEE7FEE7FEE7FEE7FEE7FEE7FEE777
:10016000FEE7FEE7C11E000831010008D2B201E03F
:1001700000F8012B491EFBD270470022F6E710B5AC
:1001800013460A4604461946FFF7F0FF204610BD05
:10019000064C074D06E0E06840F0010394E80700D4
:1001A00098471034AC42F6D3FFF7C6FFD4260008B8
:1001B000F426000800BFFEE72DE9F041044604F0F4
:1001C0000105C4F34006C4F380073A4604210848F9
:1001D00000F0A0FD32460221054800F09BFD2A46B2
:1001E0000121034800F096FD00F004F8BDE8F0811D
:1001F00000100140642000BF011EA0F1010290B276
:10020000FAD1704710B5002400BF46E02046FFF742
:10021000D3FF0121224800F075FD22490870022118
:100220001F4800F06FFD2049087004211C4800F0B1
:1002300069FD1E4908700821194800F063FD1C493A
:1002400008701021164800F05DFD1A490870202141
:10025000134800F057FD18490870124800781749F4
:10026000085511480178154A04F1080011540F4847
:10027000017804F1100011540D48017804F11800C0
:1002800011540C48017804F1200011540A480178F7
:1002900004F128001154601CC4B2082CB6DB10BD58
:1002A0000008014014000020150000201600002066
:1002B0001700002018000020190000206401002011
:1002C00010B5024800F01EF910BD0000200100200A
:1002D00030B590F840500124AC40C56B6C600468A8
:1002E00063604468102C04D10468A2600468E16073
:1002F00003E00468A1600468E26030BD704772B634
:1003000000BFFEE70146002291F82100022808D034
:100310000420886300BF002081F8200000BF012076
:1003200070470868006820F00E000B6818600868C5
:10033000006820F001000B68186091F8403001203F
:100340009840CB6B5860012081F8210000BF00204D
:1003500081F8200000BF1046E2E7000070B50446B7
:10036000002594F82100022803D00420A063012571
:10037000C1E02068006820F00E0021680860206855
:10038000006820F00100216808605C49206888420C
:1003900052D95A4978392068884201D1012047E072
:1003A000564964392068884201D1102040E0534901
:1003B00050392068884201D1801539E04F493C39D5
:1003C0002068884201D1801432E04C4928392068E5
:1003D000884202D14FF480302AE04849143920681D
:1003E000884202D14FF4801022E0444920688842BC
:1003F00001D140041CE042492068884201D101201B
:1004000016E03F4914312068884201D110200FE0E6
:100410003B4928312068884201D1801508E03849DD
:100420003C312068884201D1801401E04FF48030D3
:100430003349091F086051E0304978392068884203
:1004400001D1012047E02D4964392068884201D15B
:10045000102040E0294950392068884201D1801598
:1004600039E026493C392068884201D1801432E0C5
:10047000224928392068884202D14FF480302AE08E
:100480001E4914392068884202D14FF4801022E0BE
:100490001A492068884201D140041CE018492068AC
:1004A000884201D1012016E01549143120688842A4
:1004B00001D110200FE0124928312068884201D173
:1004C000801508E00E493C312068884201D1801433
:1004D00001E04FF48030094980394860012084F8F8
:1004E000210000BF002084F8200000BF606B10B125
:1004F0002046616B8847284670BD0000800002409E
:100500000804024070B50446E06B05682068066880
:1005100094F84010042088402840002875D006F048
:1005200004000028FAD02068006800F0200028B9F4
:100530002068006820F0040021680860D549206820
:10054000884254D9D34978392068884201D104209F
:1005500049E0D04964392068884201D1402042E016
:10056000CC4950392068884201D100153BE0C94987
:100570003C392068884202D14FF4804033E0C549BD
:1005800028392068884202D14FF480202BE0C149ED
:1005900014392068884202D14FF4800023E0BD491D
:1005A0002068884201D1C0041DE0BB492068884210
:1005B00001D1042017E0B84914312068884201D1E4
:1005C000402010E0B44928312068884201D100154C
:1005D00009E0B1493C312068884202D14FF48040A3
:1005E00001E04FF48020AC49091F086054E0A9499C
:1005F00078392068884201D104204AE0A54964394D
:100600002068884202D1402043E04CE0A1495039A3
:100610002068884201D100153BE09E493C392068A2
:10062000884202D14FF4804033E09A49283920684B
:10063000884202D14FF480202BE09649143920687B
:10064000884202D14FF4800023E09249206888421A
:1006500001D1C0041DE090492068884201D10420E6
:1006600017E08D4914312068884201D1402010E004
:10067000894928312068884201D1001509E086495E
:100680003C312068884202D14FF4804001E04FF4B1
:100690008020804980394860E06A002802D02046E6
:1006A000E16A8847F4E094F840100220884028402E
:1006B000002871D006F002000028FAD020680068F7
:1006C00000F0200040B92068006820F00A0021688E
:1006D0000860012084F821006E492068884254D9BE
:1006E0006C4978392068884201D1022049E0694983
:1006F00064392068884201D1202042E065495039A0
:100700002068884201D140153BE062493C392068AD
:10071000884202D14FF4005033E05E492839206806
:10072000884202D14FF400302BE05A491439206836
:10073000884202D14FF4001023E0564920688842D5
:1007400001D180041DE054492068884201D1022073
:1007500017E0514914312068884201D1202010E06F
:100760004D4928312068884201D1401509E04A49A5
:100770003C312068884202D14FF4005001E04FF430
:1007800000304549091F086054E042497839206823
:10079000884202D102204AE057E03E49643920688D
:1007A000884201D1202042E03A49503920688842ED
:1007B00001D140153BE037493C392068884202D1DD
:1007C0004FF4005033E0334928392068884202D181
:1007D0004FF400302BE02F4914392068884202D1B1
:1007E0004FF4001023E02B492068884201D1800497
:1007F0001DE029492068884201D1022017E02649DE
:1008000014312068884201D1202010E0224928318B
:100810002068884201D1401509E01F493C31206819
:10082000884202D14FF4005001E04FF400301949E2
:100830008039486000BF002084F8200000BFA06A13
:1008400030B32046A16A884722E094F8401008207F
:1008500088402840E0B106F00800C8B12068006870
:1008600020F00E002168086094F8401001208840B4
:10087000E16B48600120A06384F8210000BF0020E4
:1008800084F8200000BF206B10B12046216B884700
:1008900070BD0000800002400804024001460022B2
:1008A00009B9012070471E4B086898420BD21D4BB6
:1008B0000868C01A1423B0FBF3F0800008641948DC
:1008C0000838C8630AE0164B0868C01A1423B0FB46
:1008D000F3F08000086412480838C863022081F8E9
:1008E00021000868026843F6F0708243D1E90103F1
:1008F0001843CB6818430B6918434B6918438B693D
:100900001843CB69184302430868026000208863DB
:10091000012081F82100002081F8200000BFC1E7FC
:1009200008040240080002402DE9F04104460D464B
:1009300016461F464FF0000800BF94F8200001281B
:1009400002D10220BDE8F081012084F8200000BF20
:1009500094F8210001282CD1022084F821000020E5
:10096000A0632068006820F00100216808603B4611
:10097000324629462046FFF7ABFCE06A30B12068DA
:10098000006840F00E00216808600BE020680068F5
:1009900020F00400216808602068006840F00A0028
:1009A000216808602068006840F001002168086044
:1009B00006E000BF002084F8200000BF4FF00208CE
:1009C0004046BFE72DE9F847024600239C467BE1FD
:1009D0004FF0010808FA03F4D1F8008008EA040097
:1009E000A0427DD1DFF8F4A2D1F80480A8EB0A0977
:1009F000D0453AD014DCB8F1030F50D009DCB8F17F
:100A0000000F31D0B8F1010F1CD0B8F1020F49D15D
:100A100020E0B8F1110F18D0B8F1120F42D11EE04A
:100A2000B9F5881F25D006DCB9F5803F20D0B9F58F
:100A3000801F37D11AE0B9F5001F18D0B9F5041F8F
:100A400030D117E0D1F80CC02DE0D1F80C8008F1BE
:100A5000040C28E0D1F80C8008F1080C23E0D1F850
:100A60000C8008F10C0C1EE000BF00BF00BF00BFEF
:100A700000BF00BFD1F80880B8F1000F02D14FF0DD
:100A8000040C0BE0D1F80880B8F1010F03D14FF04E
:100A9000080C146102E04FF0080C546103E04FF0C1
:100AA000000C00E000BF00BFFF2801D8904601E025
:100AB00002F104084646FF2802D84FEA830803E003
:100AC000A3F108084FEA88084746D6F800804FF09F
:100AD0000F0909FA07F928EA09080CFA07F900E0F2
:100AE0007AE048EA0908C6F80080D1F8048008F0E6
:100AF0008058B8F1805F6FD100BFDFF8E481D8F88B
:100B0000188048F00108DFF8D891C9F81880C84665
:100B1000D8F8188008F00108CDF8008000BF00BFA9
:100B20004FEAB9384FEA930958F829504FEA8378C9
:100B30004FEA18794FF00F0808FA09F825EA080576
:100B4000DFF8A081424502D14FF0000824E0DFF831
:100B50009881424502D14FF001081DE0DFF88C81F9
:100B6000424502D14FF0020816E0DFF88481424589
:100B700002D14FF003080FE0DFF87881424502D13F
:100B80004FF0040808E0DFF87081424502D14FF0D1
:100B9000050801E04FF006084FEA83794FEA19791A
:100BA00008FA09F848EA0505DFF850814FEA930989
:100BB00048F82950D1F8048008F48018B8F5801F4F
:100BC0000BD1DFF83C81D8F8008048EA0008DFF854
:100BD0003091C9F800800AE075E0DFF82481D8F888
:100BE000008028EA0008DFF81891C9F80080D1F8E1
:100BF000048008F40018B8F5001F0ED1DFF800815A
:100C000008F10408D8F8008048EA0008DFF8F090FE
:100C100009F10409C9F800800DE0DFF8E48008F16B
:100C20000408D8F8008028EA0008DFF8D49009F119
:100C30000409C9F80080D1F8048008F40038B8F538
:100C4000003F0ED1DFF8B880A8F10408D8F8008082
:100C500048EA0008DFF8A890A9F10409C9F8008063
:100C60000DE0DFF89C80A8F10408D8F8008028EA9D
:100C70000008DFF88C90A9F10409C9F80080D1F8C8
:100C8000048008F48038B8F5803F0ED1DFF870801A
:100C9000A8F10808D8F8008048EA0008DFF860905A
:100CA000A9F10809C9F800800DE0DFF85480A8F127
:100CB0000808D8F8008028EA0008DFF84490A9F175
:100CC0000809C9F800805B1CD1F8008028FA03F8F5
:100CD000B8F1000F7FF47CAEBDE8F887000011107A
:100CE0000010024000080140000C014000100140CB
:100CF0000014014000180140001C014008000140A0
:100D000008040140024693680B400BB1012000E04B
:100D1000002070470AB1016101E00B0403617047D4
:100D200001480068704700000400002070B50446C8
:100D30000CB9012070BD4CF6CC402168086045F22A
:100D4000555021680860D4E9001048602168A06807
:100D50008860FFF7E5FF05460DE0FFF7E1FF401B68
:100D600041F23C31884206D92068C06800F0030097
:100D700008B10320DEE72068C06800F00300002807
:100D8000EBD14AF6AA20216808600020D2E701468C
:100D90004AF6AA200A6810600020704703480068DD
:100DA000034909780844014908607047040000209D
:100DB0000C00002010B50848006840F010000649FB
:100DC0000860032000F0A8F80F2000F007F800F0FA
:100DD0002BF8002010BD00000020024070B5044632
:100DE0000E4800784FF47A71B1FBF0F00C490968B5
:100DF000B1FBF0F5284600F0F9FB08B1012070BD09
:100E0000102C07D200222146501E00F047F805485A
:100E1000046001E00120F2E70020F0E70C00002070
:100E2000100000200800002008B500BF11488069AC
:100E300040F001000F4988610846806900F0010018
:100E4000009000BF00BF00BF0846C06940F080505E
:100E5000C8610846C06900F08050009000BF00BF24
:100E600000BF0549486820F0E06040F0007048602D
:100E700000BF08BD001002400000014001460846C6
:100E8000002809DB00F01F0301229A4043099B0060
:100E900003F1E023C3F8002100BF70472DE9F05FA4
:100EA00080460D461646002701F010FB07463946DE
:100EB0002A46334601F00700C0F1070ABAF1040FD1
:100EC00002D94FF0040A01E0C0F1070AD14600F14F
:100ED000040ABAF1070F02D24FF0000A01E0A0F1B4
:100EE000030AD4464FF0010A0AFA09FAAAF1010AE4
:100EF0000AEA020A0AFA0CFA4FF0010B0BFA0CFB91
:100F0000ABF1010B0BEA030B4AEA0B042146404606
:100F100001F0E4FABDE8F09F00BF00F00702064BC5
:100F200019684FF6FF031940044B0B4343EA0221B3
:100F3000014B196000BF70470CED00E00000FA059E
:100F400070B504460D460CB9012070BD5A480068C2
:100F500000F00700A8420ED25748006820F00700B2
:100F60002843554908600846006800F00700A84279
:100F700001D00120E9E7207800F0020002281DD10D
:100F8000207800F00400042805D14C48406840F463
:100F9000E0604A494860207800F00800082805D140
:100FA0004648406840F460504449486043484068BF
:100FB00020F0F000A168084340494860207800F024
:100FC000010078B36068012806D13C48006800F44D
:100FD000003090B90120B8E76068022806D1374890
:100FE000006800F0007040B90120AEE733480068A7
:100FF00000F0020008B90120A7E73048406820F05F
:101000000300616808432D494860FFF789FE0646E2
:1010100009E0FFF785FE801B41F28831884202D942
:10102000032092E707E02548406800F00C00616863
:10103000B0EB810FEDD12048006800F00700A84216
:101040000ED91D48006820F0070028431A4908609F
:101050000846006800F00700A84201D0012074E7AC
:10106000207800F00400042807D11448406820F4D8
:10107000E060E168084311494860207800F008000A
:10108000082808D10D48406820F46050216940EAE2
:10109000C1000A49486000F03FF808494968C1F3B7
:1010A0000311074A515CC8400649086006480068B9
:1010B000FFF794FE002048E70020024000100240A5
:1010C000BA2600081000002008000020014800682F
:1010D000704700001000002000B5FFF7F7FF04493B
:1010E0004968C1F30221034A515CC84000BD0000B9
:1010F00000100240CA26000800B5FFF7E7FF0449C8
:101100004968C1F3C221034A515CC84000BD0000D8
:1011100000100240CA26000870B5002100220024F9
:1011200000230020134D696801F00C05F5B1042D72
:1011300002D0082D19D101E00F4819E00F4DC1F37D
:101140008346AB5D01F4803555B10A4D6D68C5F33A
:1011500040450B4E725D084D5D43B5FBF2F402E075
:10116000084D03FB05F4204602E000BF024800BF23
:1011700000BF70BD0010024000127A00A8260008CF
:10118000B826000800093D00F8B504460CB9012056
:10119000F8BD207800F00100002878D0F8484068B9
:1011A00000F00C0004280CD0F548406800F00C005A
:1011B000082811D1F248406800F48030B0F5803F33
:1011C0000AD1EF48006800F4003000285FD0606862
:1011D00000285CD10120DBE700BF6068B0F5803FEC
:1011E00006D1E748006840F48030E549086028E00F
:1011F000606858B9E248006820F48030E04908602F
:101200000846006820F4802008601AE06068B0F5A5
:10121000A02F0BD1DA48006840F48020D84908603C
:101220000846006840F4803008600AE0D44800684E
:1012300020F48030D24908600846006820F48020FD
:10124000086000BF606888B1FFF76AFD054606E0E8
:10125000FFF766FD401B642801D9032098E7C848C2
:10126000006800F400300028F2D010E0FFF758FDCD
:10127000054606E0FFF754FD401B642801D9032012
:1012800086E7BF48006800F400300028F2D12078DB
:1012900000F00200022857D1B948406800F00C0065
:1012A00050B1B748406800F00C00082818D1B44885
:1012B000406800F4803098B9B148006800F002003E
:1012C00020B12069012801D0012061E7AC48006805
:1012D00020F0F800616940EAC100A949086033E0E4
:1012E0002069E8B10120A7490860FFF719FD05460C
:1012F00006E0FFF715FD401B022801D9032047E750
:101300009F48006800F002000028F2D09C48006866
:1013100020F0F800616940EAC1009949086013E0D3
:10132000002098490860FFF7FBFC054606E0FFF740
:10133000F7FC401B022801D9032029E790480068E8
:1013400000F002000028F2D1207800F00800082800
:101350002DD1A069B8B101208B490860FFF7E0FCEE
:10136000054606E0FFF7DCFC401B022801D90320FC
:101370000EE78348406A00F002000028F2D0012006
:1013800000F050FD13E000207F490860FFF7C8FC23
:10139000054606E0FFF7C4FC401B022801D90320E4
:1013A000F6E67748406A00F002000028F2D1207883
:1013B00000F00400042873D100277148C06900F0D0
:1013C000805070B900BF6E48C06940F080506C49D1
:1013D000C8610846C06900F08050009000BF00BF9F
:1013E00001276A48006800F48070B0B96748006857
:1013F00040F4807065490860FFF792FC054606E0FE
:10140000FFF78EFC401B642801D90320C0E65F482B
:10141000006800F480700028F2D000BFE068012866
:1014200006D15748006A40F001005549086227E09C
:10143000E06858B95248006A20F00100504908623B
:101440000846006A20F00400086219E0E0680528F8
:101450000BD14B48006A40F0040049490862084635
:10146000006A40F0010008620AE04548006A20F086
:101470000100434908620846006A20F0040008623F
:1014800000BFE068A0B1FFF74BFC054609E0FFF79D
:1014900047FC401B41F28831884202D9032077E69D
:1014A00022E03748006A00F002000028EFD012E086
:1014B000FFF736FC054608E0FFF732FC401B41F21F
:1014C0008831884201D9032062E62D48006A00F085
:1014D00002000028F0D1012F05D12948C06920F071
:1014E00080502749C86100BFE069C8B324484068FC
:1014F00000F00C00082860D0E069022848D10020E4
:1015000020490866FFF70CFC054606E0FFF708FCDB
:10151000401B022801D903203AE61948006800F070
:1015200000700028F2D1206AB0F5803F07D114483E
:10153000406820F40030A168084311494860D4E9AC
:10154000080108430E49496821F4741108430C4905
:10155000486001200B490866FFF7E2FB054607E0FB
:101560003DE0FFF7DDFB401B022801D903200FE619
:101570000348006800F000700028F2D02FE000005F
:1015800000100240000042428004424200700040CD
:10159000002014490866FFF7C3FB054606E0FFF785
:1015A000BFFB401B022801D90320F1E50E4800686B
:1015B00000F000700028F2D111E0E069012800D1AC
:1015C000E6E50948466806F48031206A814204D184
:1015D00006F47011606A814201D00120D8E5002034
:1015E000D6E50000000042420010024070B50446FB
:1015F0002546681EB0F1807F01D301200FE0681EF0
:101600004FF0E02148610F214FF0FF3000F066FFFE
:1016100000204FF0E021886107200861002070BDA4
:10162000704770B50446002520684069C0F3C015B6
:1016300094F84100212817D1B5B100BF00BF21683F
:10164000143151E8001F21F080002168143141E875
:101650000002002AF3D100BFA06B10B1A06BFEF70F
:1016600051FE204600F03EFD20684069C0F3801521
:1016700094F84200222817D1B5B100BF00BF2168FD
:10168000143151E8001F21F040002168143141E875
:101690000002002AF3D100BFE06B10B1E06BFEF74F
:1016A00031FE204600F0D8FC002070BD70470000DD
:1016B0002DE9F84F0446206805682068C668206850
:1016C00047694FF00009CA4605F00F09B9F1000F4C
:1016D0000AD105F0200038B106F0200020B12046E4
:1016E00000F013FDBDE8F88FB9F1000F7BD007F0D3
:1016F000010018B906F49070002874D005F00100BC
:1017000030B106F4807018B1606C40F00100606484
:1017100005F0040030B107F0010018B1606C40F032
:101720000200606405F0020030B107F0010018B15A
:10173000606C40F00400606405F0080048B106F0F9
:10174000200010B907F0010018B1606C40F00800EB
:101750006064606C002845D005F0200028B106F0D8
:10176000200010B1204600F0D0FC20684069C0F392
:10177000801A606C00F0080010B9BAF1000F2CD08C
:10178000204600F069FC2068406900F0400000B38A
:1017900000BF00BF2168143151E8001F21F0400054
:1017A0002168143141E80002002AF3D100BFE06B48
:1017B00050B17748E16B4863E06BFEF7CFFD88B12D
:1017C000E06B416B88470DE02046FFF76FFF09E0B3
:1017D00009E02046FFF76AFF04E02046FFF766FFB6
:1017E000002060647EE7206B012877D105F01000AF
:1017F000002873D006F010000028FAD000BF0020A7
:10180000009020680068009020684068009000BF49
:1018100000BF2068406900F0400000285FD0E06B06
:10182000006840681FFA80F8B8F1000F55D0A08D0D
:10183000404552DDA4F82E80E06B8069202843D01B
:1018400000BF00BF21680C3151E8001F21F48070F7
:1018500021680C3141E80002002AF3D100BF00BF2B
:1018600000BF2168143151E8001F21F001002168F8
:10187000143141E80002002AF3D100BF00BF00BFCD
:101880002168143151E8001F21F040002168143113
:1018900041E80002002AF3D100BF202084F8420072
:1018A0000020206300BF00BF21680C3151E8001FF9
:1018B00021F0100021680C3141E80002002AF3D128
:1018C00000BFE06BFEF71EFD02206063A08DE28D7D
:1018D000801A81B22046FFF7A3FE03E742E0A08D05
:1018E000E18D401A1FFA80F8E08DD0B3B8F1000FF7
:1018F00037D000BF00BF21680C3151E8001F21F430
:10190000907021680C3141E80002002AF3D100BF39
:1019100000BF00BF2168143151E8001F21F0010011
:101920002168143141E80002002AF3D100BF2020D1
:1019300084F842000020206300BF00BF21680C3102
:1019400051E8001F21F0100021680C3141E800022D
:10195000002AF3D100BF0220606341462046FFF712
:101960005FFEBFE605F0800030B106F0800018B1E0
:10197000204600F02BFDB5E605F0400030B106F042
:10198000400018B1204600F09DFBABE600BFA9E681
:101990001D1F000810B504460CB9012010BDA06938
:1019A00000B100E000BF94F8410028B9002084F89D
:1019B0004000204600F02AF8242084F841002068E6
:1019C000C06820F400502168C860204600F01CFC6C
:1019D0002068006920F4904021680861206840690F
:1019E00020F02A00216848612068C06840F4005057
:1019F0002168C86000206064202084F8410084F8D9
:101A000042000020606300BFC8E7000010B586B048
:101A100004460020029003900490059048492068F5
:101A2000884250D100BF4748C06940F40020454972
:101A3000C8610846C06900F40020019000BF00BFE3
:101A400000BF0846806940F0100088610846806940
:101A500000F01000019000BF00BF081502900220A6
:101A600003900320059002A93748FEF7ABFF4FF41F
:101A70000060029000200390049002A93248FEF713
:101A8000A1FF3248324908600020486000213048F8
:101A900081608021C1600021016141618161C1617A
:101AA000FEF7FCFE08B1FEF72AFC00BF2848E06301
:101AB000446200BF002211463420FFF7EFF93420C2
:101AC000FFF7DCF93AE023492068884236D100BFAD
:101AD0001C48806940F480401A4988610846806942
:101AE00000F48040019000BF00BF00BF084680693D
:101AF00040F0040088610846806900F0040001900D
:101B000000BF00BF481502900220039003200590FB
:101B100002A91148FEF756FF4FF4806002900020A2
:101B20000390049002A90C48FEF74CFF00221146D6
:101B30002520FFF7B3F92520FFF7A0F906B010BD67
:101B4000004C0040001002400010014030040240F0
:101B500020010020003801400008014070B5044613
:101B60000D46164694F8420020280BD105B10EB957
:101B7000012070BD0020206332462946204600F037
:101B8000C1FBF6E70220F4E7704770472DE9F84FF4
:101B900004460E46174699464FF0000A94F8410055
:101BA000202850D106B117B90120BDE8F88F0020D8
:101BB0006064212084F84100FFF7B2F88246A784D0
:101BC000E784A068B0F5805F04D1206910B90025D2
:101BD000B04602E035464FF000081EE053460022B2
:101BE00080212046CDF8009000F020FC20B120207C
:101BF00084F841000320D8E745B9B8F80000C0F3E5
:101C000008002168486008F1020803E0287821688C
:101C100048606D1CE08C401EE084E08C0028DDD123
:101C20005346002240212046CDF8009000F0FEFBF4
:101C300020B1202084F841000320B6E7202084F85A
:101C400041000020B1E70220AFE7704700BFFEE788
:101C500008B500BF0A48406940F0020008494861E1
:101C60000846406900F00200009000BF00BF00225B
:101C700011463A20FFF712F93A20FFF7FFF808BDA6
:101C80000010024000B585B0002001900290039042
:101C9000049000BF3048806940F020002E498861E0
:101CA0000846806900F02000009000BF00BF00BF20
:101CB0000846806940F0100088610846806900F09D
:101CC0001000009000BF00BF00BF0846806940F0D0
:101CD000040088610846806900F00400009000BF9D
:101CE00000BF00220F211D48FFF714F800224FF417
:101CF00000411B48FFF70EF80720019001200290D9
:101D0000002003900220049001A91448FEF75AFE17
:101D1000082001900120029003900220049001A964
:101D20000E48FEF74FFE3F200190002002900390E6
:101D300001A90B48FEF746FE4FF400400190012038
:101D40000290002003900220049001A90448FEF7AD
:101D500039FE05B000BD0000001002400010014037
:101D60000008014010B50748074908600420486092
:101D70004FF47A7104488160FEF7D8FF08B1FEF78E
:101D8000BEFA10BD003000402000002010B5114800
:101D9000114908604FF4E130486000210E4881602D
:101DA000C16001610C21416100218161C161FFF7C6
:101DB000F1FD08B1FEF7A3FA07480068C06840F0DB
:101DC000100005490968C860642204490248FFF709
:101DD000C5FE10BD004C0040900000202C000020EB
:101DE00010B50B480B4908604FF4E1304860002102
:101DF00008488160C16001610C214161002181615D
:101E0000C161FFF7C7FD08B1FEF779FA10BD000008
:101E100000380140D800002000BFFEE700BFFEE709
:101E20007047000008B508490968C9084FF47A727C
:101E3000B1FBF2F14143009100BF00BF00994A1E7F
:101E400000920029F9D108BD10000020704710B59C
:101E5000FEF7A4FF10BD00B58FB0282105A8FEF73E
:101E60008CF914216846FEF788F9092005904FF493
:101E70008030069000200790012009900B900220EE
:101E80000C90C1030D914FF4E0110E9105A8FFF7DE
:101E90007BF908B1FEF733FA0F2000900220019081
:101EA000002002904FF480600390002004900221F3
:101EB0006846FFF745F808B1FEF721FA0FB000BDFC
:101EC0007047000008B511480068006800F0100075
:101ED000102819D100BF002000900C48006800684D
:101EE00000900A4800684068009000BF00BF0748A3
:101EF000FFF797FB01200649087006480068406814
:101F0000C0F164000449087008BD00009000002082
:101F100001000020200100200000002070B50546CF
:101F20006C6A0020E085E0842046FFF7BFFB70BDAF
:101F300070B506460025746A20684069C0F3C01574
:101F400094F84100212805D125B10020E0842046E5
:101F500000F0C8F820684069C0F3801594F842008A
:101F6000222805D125B10020E085204600F074F834
:101F7000606C40F0100060642046FFF797FB70BD76
:101F800070B505466C6A2868006800F020000028DB
:101F900042D1E08500BF00BF21680C3151E8001F2D
:101FA00021F4807021680C3141E80002002AF3D14D
:101FB00000BF00BF00BF2168143151E8001F21F0AD
:101FC00001002168143141E80002002AF3D100BF6A
:101FD00000BF00BF2168143151E8001F21F040000C
:101FE0002168143141E80002002AF3D100BF20200B
:101FF00084F84200206B01280ED100BF00BF216889
:102000000C3151E8001F21F0100021680C3141E82B
:102010000002002AF3D100BF00206063206B01287A
:1020200004D1A18D2046FFF7FBFA02E02046FFF71E
:10203000ABFD70BD70B505466C6A01206063206B16
:10204000012805D1A08D41082046FFF7E9FA02E0FA
:102050002046FFF79AFD70BD00BF00BF02680C323A
:1020600052E8002F22F4907102680C3242E800130B
:10207000002BF3D100BF00BF00BF0268143252E84A
:10208000002F22F001010268143242E80013002BF5
:10209000F3D100BF016B01290ED100BF00BF026860
:1020A0000C3252E8002F22F0100102680C3242E894
:1020B0000013002BF3D100BF202180F84210002133
:1020C0000163704710B504462068C06820F04000E6
:1020D0002168C860202084F841002046FFF7B5FD44
:1020E000002010BD00BF00BF02680C3252E8002F74
:1020F00022F0C00102680C3242E80013002BF3D139
:1021000000BF202180F841107047F8B5044694F8CC
:102110004200222875D1A068B0F5805F0CD12069FB
:1021200050B90025A66A20684068C0F308003080D6
:10213000A06A801CA06215E0A56A0026A068B0F520
:10214000805F03D0A06828B9206918B9206840686A
:10215000287004E02068406800F07F002870A06AC2
:10216000401CA062E08D401E80B2E085002846D170
:102170002068C06820F020002168C8602068C0681E
:1021800020F480702168C8602068406920F0010058
:1021900021684861202084F8420000206063206BA1
:1021A000012826D10020206300BF00BF21680C3128
:1021B00051E8001F21F0100021680C3141E80002B5
:1021C000002AF3D100BF2068006800F0100010283A
:1021D0000AD100BF002000902068006800902068AD
:1021E0004068009000BF00BFA18D2046FFF718FA9D
:1021F00002E02046FFF7C8FC0020F8BD01E0002007
:10220000FBE70220F9E7000070B504462168096980
:1022100021F44051E2681143226811612269A168EA
:102220001143626941EA02052168C96841F20C6202
:10223000914329432268D1602168496921F44071A2
:10224000A2691143226851612D4A2168914202D14D
:10225000FEF752FF01E0FEF73FFF00EBC00101EB8C
:10226000001162689200B1FBF2F100EBC00202EBD8
:10227000001263689B00B2FBF3F26423B2FBF3F23B
:1022800002EBC20303EB0212A1EB8201322202EB4A
:1022900001116422B1FBF2F101F0F00100EBC00288
:1022A00002EB001263689B00B2FBF3F26423B2FB03
:1022B000F3F201EB021200EBC00101EB00116368C5
:1022C0009B00B1FBF3F100EBC00303EB0013666866
:1022D000B600B3FBF6F36426B3FBF6F303EBC306D9
:1022E00006EB0313A1EB8301322303EB01116423FB
:1022F000B1FBF3F101F00F0111442268916070BD50
:102300000038014077B581B0044615460298A062B6
:10231000A58500206064222084F842002848E16BF3
:1023200088622848E16BC8622748E16B0863002097
:10233000E16B486302AE32682368191D2B46E06BDF
:10234000FEF7F2FA00BF00200090206800680090BD
:1023500020684068009000BF00BF206970B100BFD6
:1023600000BF21680C3151E8001F41F480702168E2
:102370000C3141E80002002AF3D100BF00BF00BFCA
:102380002168143151E8001F41F001002168143127
:1023900041E80002002AF3D100BF00BF00BF21685E
:1023A000143151E8001F41F040002168143141E828
:1023B0000002002AF3D100BF002004B070BD00006D
:1023C000811F000835200008311F0008014691F8E0
:1023D0004100212828D18868B0F5805F0BD10869B9
:1023E00048B90A6A1088C0F308000B685860086A88
:1023F000801C086205E00B6A581C086218780B689C
:102400005860C88C401E80B2C88458B90868C0683B
:1024100020F080000B68D8600868C06840F0400079
:102420000B68D860002070470220FCE72DE9F843D4
:1024300004460D4617469846089E31E0701C70B35E
:10244000FEF76EFCA0EB0800B04200D816B90320DE
:10245000BDE8F8832068C06800F00400F8B1802D62
:102460001ED0402D1CD020680068C0F3C000B0B161
:1024700000BF00200090206800680090206840683D
:10248000009000BF00BF2046FFF7E6FD0820606413
:1024900000BF002084F8400000BF0120D8E7FFE71C
:1024A000206800682840A84201D1012000E00020F7
:1024B000B842C3D00020CBE710B50248FFF7F8F8C8
:1024C00010BD0000D800002000BFFEE702480068F1
:1024D000C0F30220704700000CED00E010B50028AA
:1024E00004DB0A07130E054A135406E00A07140E0C
:1024F000034A00F00F031B1FD45410BD00E400E09A
:1025000018ED00E002E008C8121F08C1002AFAD145
:1025100070477047002001E001C1121F002AFBD163
:102520007047F0B589B004460E462078012801D0E6
:1025300009B0F0BD0027002003E0215C3944CFB290
:10254000401C711E8142F8DC701E205CB84200D035
:10255000EEE7607801281FD1FDF754FE00200790B8
:102560000890002505E0E9B207AA501900F016F816
:102570006D1C062DF7DB142102A8FDF7FEFD07A850
:10258000062301221146009002A800F055F80A2106
:1025900002A800F06FF800BF00BFC9E730B50246DF
:1025A000002009E0137800EBC104054D2C5D844048
:1025B00023431370431CD8B20828F3DB30BD00005E
:1025C00064010020FEF7F6FBFFF745FCFFF75AFB1E
:1025D000FFF73EFBFFF7C6FBFFF7D8FBFFF700FC5A
:1025E00000224FF400410E48FEF794FB17E00D481F
:1025F0000078012810D10C4801780C48FFF791FFB2
:1026000064210A48FDF7B9FD0020064908706422DC
:1026100006490748FFF7A2FA0648FEF7B8FBE6E7C7
:102620000008014001000020000000202C000020D4
:102630009000002020000020F0B50C46059E0025EB
:10264000047042708370002106E016F801C0CF1CB0
:1026500000F807C04F1CF9B29942F6DB002104E0F4
:10266000475C2F44FDB24F1CF9B2DF1CB942F7DBC7
:10267000C555F0BD70B504460D460122D10308488A
:10268000FEF748FB4FF47A732A4621460548FFF7C8
:102690007DFA00224FF400410148FEF73BFB70BD7C
:1026A0000008014090000020020304050607080905
:1026B0000A0B0C0D0E0F10100102000000000000AC
:1026C00000000102030406070809000000000102DF
:1026D00003040000F4260008000000202000000091
:1026E00004250008142700082000002078050000B9
:1026F0001425000800000000000000001000000089
:102700000100000000127A0000000000000000003C
:0427100000000000C5
:0400000508000131BD
:00000001FF
